:020000040800F2
:10000000A007002065010008312C000871210008BC
:1000100000000000000000000000000000000000E0
:10002000000000000000000000000000352C000867
:100030000000000000000000332C0008372C0008EE
:100040009501000895010008950100089501000838
:100050009501000895010008950100084506000873
:1000600000000000950100089501000895010008B6
:1000700095010008950100080000000095010008A6
:100080000000000000000000000000000000000070
:100090009501000800000000000000007521000824
:1000A00000000000950100080000000000000000B2
:1000B00095010008F9290008000000000000000078
:1000C00000F002F800F03EF80CA030C80838241800
:1000D0002D18A246671EAB4654465D46AC4201D180
:1000E00000F030F87E460F3E0FCCB6460126334274
:1000F00000D0FB1AA246AB46334318477C340000BD
:100100009C340000103A02D378C878C1FAD852075C
:1001100001D330C830C101D504680C6070470000BD
:100120000023002400250026103A01D378C1FBD813
:10013000520700D330C100D50B6070471FB51FBDFB
:1001400010B510BD00F099F91146FFF7F7FF03F065
:1001500057F900F0B1F903B4FFF7F2FF03BC00F068
:10016000B7F900000F4880F308880F480168090EAE
:100170000E4A914205D10E480E4901600E480F49C2
:1001800001600F4880470F480047FEE7FEE7FEE7A3
:10019000FEE7FEE7FEE700000B480C490C4A0D4B5A
:1001A00070470000A0070020040000001F000000AE
:1001B0003410024001000000000001400000000077
:1001C000D52C0008C1000008A0010020A0070020D5
:1001D000A0030020A0030020FEB5054610460C46F3
:1001E000184373D0AE468C460020AD1A01469C41A0
:1001F00067D36646002701243D46B61A9D4102D3C7
:1002000013463A462124654676462F04360C3E4373
:100210002D0CB61A9D4104D3150C1B042B4312045C
:100220001034654676462F06360A3E432D0AB61A26
:100230009D4104D3150E1B022B4312020834654660
:1002400076462F0736093E432D09B61A9D4104D341
:10025000150F1B012B431201241D65467646AF077F
:10026000B6083E43AD08B61A9D4104D3950F9B00D6
:100270002B439200A41C65467646EF0776083E4362
:100280006D08B61A9D411AD392185B41641C16E0A2
:100290000018764665464941B71A9D410191009084
:1002A00009D36046B11A98418E4684460098019958
:1002B0000025401C6941DD0752082A435B08641E83
:1002C000E6D57246634603B0F0BDFFE70020014665
:1002D000C046C0462A462346F5E701E004C0091F90
:1002E0000429FBD28B0701D50280801CC90700D0EE
:1002F0000270704700290BD0C30702D00270401C67
:10030000491E022904D3830702D50280801C891E5E
:10031000E3E70022EEE70022DFE7002203098B4239
:100320002CD3030A8B4211D300239C464EE0034694
:100330000B433CD4002243088B4231D303098B4248
:100340001CD3030A8B4201D394463FE0C3098B427E
:1003500001D3CB01C01A524183098B4201D38B01D7
:10036000C01A524143098B4201D34B01C01A52417A
:1003700003098B4201D30B01C01A5241C3088B42BF
:1003800001D3CB00C01A524183088B4201D38B00AA
:10039000C01A524143088B4201D34B00C01A52414C
:1003A000411A00D201465241104670475DE0CA0F23
:1003B00000D04942031000D34042534000229C46E3
:1003C00003098B422DD3030A8B4212D3FC228901ED
:1003D00012BA030A8B420CD3890192118B4208D3C3
:1003E000890192118B4204D389013AD0921100E025
:1003F0008909C3098B4201D3CB01C01A5241830939
:100400008B4201D38B01C01A524143098B4201D365
:100410004B01C01A524103098B4201D30B01C01A90
:100420005241C3088B4201D3CB00C01A524183080A
:100430008B4201D38B00C01A5241D9D243088B4260
:1004400001D34B00C01A5241411A00D20146634603
:1004500052415B10104601D34042002B00D5494267
:10046000704763465B1000D3404201B50020C04690
:10047000C04602BD704770477047754600F024F8CB
:10048000AE46050069465346C008C000854618B010
:1004900020B5FFF781FE60BC00274908B64600265C
:1004A000C0C5C0C5C0C5C0C5C0C5C0C5C0C5C0C524
:1004B000403D49008D46704710B50446C046C046D1
:1004C0002046FFF748FE10BD00487047400100205D
:1004D00001491820ABBEFEE726000200704770B548
:1004E0000446002508E0204600F070F80646FF218B
:1004F000F531FFF712FFC5B2204600F093F801284E
:10050000F1D0204600F08EF80228ECD0284670BDCD
:1005100038B5044600202EE00146C20F5218521092
:100520005200821A21D1002806D0022808D00428BF
:100530000AD0062810D10BE000211E4A11540BE00E
:1005400010211C4A115407E020211A4A115403E0DB
:100550003021184A115400BF00BF0E2C09D1154993
:10056000095C491C134A115403E01349095D114AFF
:100570001154411CC8B20728CEDD1048006810494C
:10058000884215D10022012189030E4800F025FA86
:1005900032200823074A582100900B4800F06EFBD8
:1005A00001229103074800F018FA0020034908606F
:1005B00038BD00000A00002040350008200000205F
:1005C00020A10700000800505000002010B504468C
:1005D000204600F027F8002806D001280AD002287B
:1005E0000DD0032811D10BE000200C4908600C4904
:1005F00008600BE000F0F8F90849086006E005E043
:1006000000F0F2F90649086000E000BF00BF0448AE
:10061000006802490968401A10BD00001800002057
:100620001C00002001460A46914205D1012901D152
:10063000002070470320FCE7012901D10120F8E7E1
:100640000220F6E710B50120C00300F0C5F810BD88
:10065000704770B503460C4600201F2100BF0D46B1
:10066000491E002D06D0CE06F60E0125B5402540C8
:10067000002DF4D0002A11D0082A0BD0102A05D062
:10068000182A0CD1072900D301200AE0082900D339
:10069000012006E0102900D3012002E001E0012042
:1006A00000BF00BF002808D11D686C611D68AD68DF
:1006B0001826B54315431E68B56070BD10B50446D5
:1006C000002C01D1012010BD607F002803D12077CC
:1006D000204600F039F8022060772079002809D1FF
:1006E000184821684861206880681821884321687B
:1006F000886008E02046E268A168FFF7AAFF0028AA
:1007000001D00120DFE76079002803D1401E216875
:10071000086102E021682069086120688068602122
:100720008843616908432168886020688068802167
:100730008843A16908432168886001206077002010
:10074000C1E70000B71DC10408B5094A016891421C
:100750000DD100BF0749096B92141143054A11637B
:100760001146096B92141140009100BF00BF08BDF3
:10077000003002400010024070B5044600252520DC
:10078000005D022803D00420E063012520E02068FA
:1007900000680E21884321680860206800684008CE
:1007A0004000216808601C21606C084001218140E4
:1007B000206C416001212520015500BF002124202B
:1007C000015500BFA06B002802D02046A16B8847CE
:1007D000284670BD7047000010B5044605484069C2
:1007E0002040002804D0034844612046FFF7F2FF70
:1007F00010BD00000004014070B503460022002433
:100800000020D0E0012696400D6835402C46002C93
:1008100077D04D68022D02D04D68122D15D1D50824
:10082000AE001D462035A8595507EE0E0F25B540E0
:100830000646AE4330465607F60E0D69B5402843CE
:10084000D508AD001E46203670514D68012D08D0E8
:100850004D68022D05D04D68112D02D04D68122D26
:1008600018D1986856000325B5400646AE43304679
:100870005600CD68B54028439860586801259540DA
:100880000646AE43304610264D6835402D0995404A
:1008900028435860186856000325B5400646AE4305
:1008A00030460D79AD07AD0F5600B54028431860AE
:1008B000D86856000325B5400646AE43304656007C
:1008C0008D68B5402843D860012636074D6835400D
:1008D000B54267D1374D6D6B01263543354E756393
:1008E000354D9608B600A85995072E0F0F25B5402F
:1008F0000646AE43304605252D07AB4202D1002502
:100900000BE04FE02D4DAB4201D1012505E02C4D10
:10091000AB4201D1022500E006259607360FB5400F
:100920002843254D9608B600A851264D286805464F
:10093000A5432846012636044D683540B54202D10C
:100940000546254328461F4D286068680546A5438F
:100950002846012676044D683540B54202D1054649
:1009600025432846174D6860A8680546A5432846D4
:10097000012636054D683540B54202D1054625436E
:100980002846104DA860E8680546A543284601267C
:1009900076054D683540B54202D1054625432846C7
:1009A000084DE860521C0D68D540002D00D029E7A5
:1009B00070BD00000010024008000140000400501B
:1009C0000008005000040140024613690B40002B50
:1009D00001D0012000E000207047002A01D0816191
:1009E00000E0816270470000014800687047000025
:1009F0002400002002464120805C20282FD100BF27
:100A00004020805C012801D1022070470123402052
:100A1000835400BF24234120835410680068400899
:100A20004000136818601068006801231B03984396
:100A3000136818601068006808431368186010682D
:100A40000068012318431368186020234120835451
:100A500000BF00234020835400BF0020D5E70220C0
:100A6000D3E710B502460B464120805C20282ED1EA
:100A700000BF4020805C012801D1022010BD01246C
:100A80004020845400BF242441208454106800680E
:100A90004008400014682060106801680F24240298
:100AA0000846A0430146180201431068016010681F
:100AB00000680124204314682060202441208454CD
:100AC00000BF00244020845400BF0020D6E702204D
:100AD000D4E700000549496B01221143034A5163E1
:100AE000034949680143024A5160704700100240BF
:100AF0000000014070477047F8B5044620688569DA
:100B000020680668FF2001302840000A00280BD02A
:100B100080203040C009002806D0606C01210843C5
:100B2000606408022168C861012080022840800AB0
:100B300000280BD080203040C009002806D0606C0F
:100B4000082108436064C8012168C861012040028F
:100B50002840400A00280BD080203040C0090028DF
:100B600006D0606C02210843606408022168C861F5
:100B7000676C0B203840002803D03946204601F02E
:100B8000E1FBF8BD70B504462068856920680668F9
:100B9000606B002804D0324629462046636B984794
:100BA00070BD704710B50446002C01D1012010BD66
:100BB0004120005D002805D100214020015520463C
:100BC00000F012F9242141200155206800684008F6
:100BD0004000216808600F21090660688843216889
:100BE0000861206880680121C90388432168886002
:100BF000E068012806D10121C903A06808432168E3
:100C0000886005E021218902A06808432168886086
:100C1000E068022802D180022168486020684068AC
:100C200014490843216848602068C0680121C9034D
:100C300088432168C860616920690843A169090285
:100C400008432168C860216AE06908432168086098
:100C50002068006801210843216808600020606462
:100C60002021412001550020206300214220015510
:100C700000209CE70080000270470000FFB581B0B3
:100C8000044616461F464120005D202877D100BF4C
:100C90004020005D012802D1022005B0F0BD0121F5
:100CA0004020015500BFFFF79FFE05461923012292
:100CB000D1032046009501F015FE002801D0012047
:100CC000EBE7212141200155102142200155002050
:100CD0006064666267856063608DFF280BD9FF20C2
:100CE00020853F480090208DC2B20B052046029916
:100CF00001F0DCFD0BE0608D208539480090208DEF
:100D0000C2B201235B062046029901F0CFFD43E009
:100D10002A4620460A9901F03EFE002801D0012013
:100D2000BBE7606A007821688862606A401C606284
:100D3000608D401E6085208D401E2085608D0028BE
:100D40002AD0208D002827D100950022802120461E
:100D50000A9B01F0C7FD002801D001209DE7608DAE
:100D6000FF280DD9FF20208500200090208DC2B2E1
:100D700001231B062046029901F098FD0CE02CE0AF
:100D8000608D208500200090208DC2B201235B067B
:100D90002046029901F08AFD608D0028B8D12A46CC
:100DA00020460A9901F0CAFD002801D0012074E70D
:100DB00020202168C861206840680A4908402168ED
:100DC000486020214120015500214220015500BFEB
:100DD0004020015500BF00205FE702205DE70000D2
:100DE0000020008000E800FE10B586B00446142103
:100DF00001A8FFF790FA1949206888422CD100BF5A
:100E00001748C06A012108431549C8620846C06AEC
:100E1000C007C00F009000BF00BF03204002019038
:100E200012200290012003900320049001200590DD
:100E300001A905200007FFF7DFFC0948806B0121AD
:100E4000490508430649886300221146172000F02F
:100E500097F8172000F086F806B010BD0054004047
:100E6000001002407047704770B50446002C01D155
:100E7000012070BD1448216808601448216808608A
:100E80002168606848602168A0688860FFF7ACFD51
:100E9000054606E0FFF7A8FD401B302801D90320D6
:100EA000E7E72068C0680028F4D120680169E0689D
:100EB000814203D02168E068086102E004482168AB
:100EC00008600020D5E70000CCCC0000555500009C
:100ED000AAAA000002480068401C01490860704747
:100EE0002400002010B50024084800684021084371
:100EF00006490860002000F00BF8002801D001240A
:100F000001E000F01FF8204610BD00000020024064
:100F100070B5044600257D21C90009480068FFF727
:100F2000FCF9064600F04AFE002801D0012504E045
:100F300000222146501E00F023F8284670BD000014
:100F4000280000200648406B0121084304494863FB
:100F50000846806B09040843014988637047000014
:100F6000001002400146002905DBCB06DB0E012202
:100F70009A40024B1A6000BF7047000000E100E099
:100F800070B504460D4616462946204602F0FCF987
:100F900070BD000010B500BF13480068012189032F
:100FA000884311490860084600684008400008600E
:100FB0000E490F480068FFF7B0F932214843044654
:100FC00000E0641E002C05D007484068202108403E
:100FD0000028F6D10448406820210840002801D0AC
:100FE000032010BD0020FCE70070004040420F00CD
:100FF00028000020064800680121084304490860D1
:101000000846006809140843014908607047000059
:1010100000700040024949680143014A516070472D
:101020000070004007480068022108430549086035
:1010300005480069042108430349086100BF00BF57
:1010400030BF70470070004000ED00E0F8B5044686
:1010500020212068084020287BD1206808402028D3
:1010600000D100BF00277948806B012109070840A3
:10107000002805D17548806B0843744988630127AF
:1010800073480068FF2101310840002816D17048DC
:10109000006808436E490860FFF7A6FC064606E0B4
:1010A000FFF7A2FC801B642801D90320F8BD684823
:1010B0000068FF21013108400028F1D0634805682D
:1010C000032109050D4060680840A8420DD00911B0
:1010D00060680840884208D15C48006801214904E2
:1010E0000840002801D00120E0E75848403000695E
:1010F0000321090408400546002D3CD060680840E3
:10110000A84238D0202120680840202833D14F48F9
:101110004030006903210904884305464B484030AC
:1011200000690121C9040843484940310861084663
:1011300000690121C90488434449403108610846D7
:10114000056180152840002815D0FFF74DFC0646A4
:1011500008E039E0FFF748FC801B3E49884201D98E
:101160000320A3E7394840300069012149020840C3
:10117000400A0028EED000BF00BF032109046068C8
:10118000084088420AD13148006809018843032297
:1011900012056168114008432C49086000BF2B48C4
:1011A0004030006903221204616811400843274956
:1011B0004031086100BF012F05D12448806B8905AB
:1011C00088432249886300BF022120680840022822
:1011D00009D11E484030C0680C218843A1680843EB
:1011E0001A494031C86004212068084004280AD107
:1011F00016484030C068032189028843E1680843EB
:1012000012494031C86008212068084008280AD1E6
:101210000E484030C0680321090388432169084310
:101220000A494031C86080212068084080280AD1DE
:1012300006484030C0680321890488436169084337
:1012400002494031C860002030E700000010024031
:101250000070004088130000F8B504460D46002CCD
:1012600001D10120F8BD79480068C007C00FA8422D
:101270000ED2764800684008400028437349086051
:1012800008460068C007C00FA84201D00120E9E766
:10129000022120680840022807D16D48C068F0216B
:1012A0008843A16808436A49C8602078C007C00F16
:1012B00000284CD06068022809D1654800680121E7
:1012C00049040840400C002824D10120CAE7606886
:1012D000032809D15E480068012149060840400EF4
:1012E000002817D10120BDE76068012808D15848BF
:1012F000006804210840800800280BD10120B1E7D4
:1013000053480068012149020840400A002801D1E1
:101310000120A7E74E48C068800880006168084344
:101320004B49C860FFF760FB0646606802280FD192
:1013300007E0FFF759FB801B4649884201D903208B
:1013400090E74348C0680C2108400828F1D134E0F8
:10135000606803280FD107E0FFF746FB801B3D497B
:10136000884201D903207DE73948C0680C21084034
:101370000C28F1D121E0606801280FD107E0FFF7C8
:1013800033FB801B3349884201D903206AE7304888
:10139000C0680C2108400428F1D10EE007E0FFF7F7
:1013A00023FB801B2B49884201D903205AE7284898
:1013B000C0680C2108400028F1D124480068C0070B
:1013C000C00FA8420ED921480068400840002843B9
:1013D0001E49086008460068C007C00FA84201D037
:1013E00001203FE7042120680840042808D118485C
:1013F000C068072109028843E16808431449C860AE
:10140000082120680840082809D11148C068072130
:10141000C90288432169C90008430D49C86000F02A
:1014200049F80B49C968F022114009090A4A515C80
:10143000C8400A4908600020FFF76AFD0746002FF0
:1014400001D038460EE700200CE7000000200240E3
:1014500000100240881300005435000828000020C6
:1014600001480068704700002800002000B5FFF721
:10147000F7FF0549C968072212021140090A034A09
:10148000515CC84000BD00000010024064350008F7
:1014900000B5FFF7E5FF0549C9680722D2021140F0
:1014A000C90A034A515CC84000BD00000010024058
:1014B00064350008FEB52E48C7680C203840002867
:1014C00045D0042804D008280CD00C283ED10BE0CD
:1014D0002748006810210840002801D0254C00E072
:1014E000254C41E0254C3FE00F2080043840800C23
:1014F00023490E5C032080053840800D401C01907C
:101500001B48C068012109040840002807D01B4976
:10151000714308460199FEF700FF054614E01448A0
:10152000006810210840002807D01249714308467E
:101530000199FEF7F2FE054606E00F4971430846A1
:101540000199FEF7EAFE05462C460DE000BF08486B
:101550004068072149030840400B00900098401C58
:1015600001218140CC0300BF00BF2046FEBD00002A
:101570000010024000093D000024F40000127A002F
:101580006C350008FEB50446002C01D10120FEBDDB
:10159000FA48C7680C210F40C068012109040840BF
:1015A00001902078C007C00F002872D0082F04D007
:1015B0000C2F0FD1019888420CD1F048006801210E
:1015C00049040840400C002863D06068002860D1BE
:1015D0000120DCE700BF012109046068884205D1D1
:1015E000E64800680843E549086027E0052109044A
:1015F000606888420ED1E1480068012189040843EF
:10160000DE49086008460068012109040843DB49F7
:10161000086013E0D9480068012109048843D749CC
:10162000086008460068012109040840009000BFD6
:10163000D248006889008843D049086000BF6068CC
:10164000002813D0FFF7D0F9054606E0FFF7CCF9E4
:10165000401B642801D9032099E7C848006801218C
:1016600049040840400C0028F0D012E0FFF7BCF914
:10167000054606E0FFF7B8F9401B642801D90320AE
:1016800085E7BE480068012149040840400C002855
:10169000F0D102212068084002286BD1E6682020A2
:1016A0003040002809D0B548006820210843B349DC
:1016B00008602021304688430646042F04D00C2FB2
:1016C00033D10198002830D1AC480068042108408B
:1016D0008008002803D0002E01D1012057E7A74839
:1016E00040681F2109028843216909020843A34970
:1016F0004860084600680921884330439F490860D4
:10170000FFF7D8FE9D49C968F022114009099C4A9B
:10171000515CC8409B4908600020FFF7F9FB02902C
:10172000029800283FD0029831E7002E23D093483A
:10173000006809218843304390490860FFF754F955
:10174000054606E0FFF750F9401B022801D90320A7
:101750001DE78A4800680421084080080028F1D06D
:10176000864840681F21090288432169090208430D
:101770008249486017E081480068400840007F497E
:101780000860FFF731F9054606E0FFF72DF9401B29
:10179000022801D90320FAE67848006804210840AD
:1017A00080080028F1D1102120680840102867D156
:1017B000002F36D17148006849010840400A0028CE
:1017C00004D0A069002801D10120E0E66B48406800
:1017D000072149038843216A08436849486008464D
:1017E00040680002000A217F0906084363494860F7
:1017F000206A400B401C01218140C8035F49C96831
:10180000F022114009095E4A515CC8405D490860F8
:101810000020FFF77DFB0290029800284BD0029831
:10182000B5E6A06900282CD054480068FF2101319A
:10183000084352490860FFF7D7F8054606E0FFF76E
:10184000D3F8401B022801D90320A0E64B480068CA
:10185000012149020840400A0028F0D0474840686A
:10186000072149038843216A0843444948600846E0
:1018700040680002000A217F090608433F4948608A
:1018800019E03E480068FF21013188433B49086068
:10189000FFF7AAF8054606E0FFF7A6F8401B022866
:1018A00001D9032073E63548006801214902084048
:1018B000400A0028F0D1082120680840082839D1C2
:1018C000606900281BD02D48403000690121084381
:1018D0002A4940310861FFF787F8054606E0FFF71F
:1018E00083F8401B022801D9032050E623484030EA
:1018F00000690221084040080028F0D01AE01F4883
:1019000040300069400840001C4940310861FFF741
:101910006BF8054606E0FFF767F8401B022801D97F
:10192000032034E615484030006902210840400891
:101930000028F0D1042120680840042879D1002033
:1019400000900E48806B89060840002806D10B489D
:10195000806B084309498863012000900A480068A9
:10196000FF210131084000281ED1074800680843C4
:1019700005490860FFF738F805460EE00010024000
:10198000543500082800002000700040FFF72CF8B4
:10199000401B642801D90320F9E585480068FF2130
:1019A000013108400028F1D000BFFF210131A068BB
:1019B000884205D17F48006908437E49086130E0CC
:1019C000A06800280DD17B480069FF2101318843C0
:1019D0007849086108460069091588437549086116
:1019E0001FE005210902A06888420DD171480069F5
:1019F0000121890208436F49086108460069891579
:101A000008436C4908610CE06A480069FF21013114
:101A10008843684908610846006909158843654993
:101A2000086100BFA068002815D0FEF7DDFF05465D
:101A300008E031E0FEF7D8FF401B5F49884201D93A
:101A40000320A4E55B480069012149020840400ADF
:101A50000028EFD013E0FEF7C7FF054607E0FEF7CA
:101A6000C3FF401B5449884201D903208FE55148E8
:101A70000069012149020840400A0028EFD100987E
:101A8000012808D14B484038806B01210907884361
:101A900048494039886300BF606A00284CD00C2F49
:101AA00069D0606A022848D1424840380068012164
:101AB000090688433F4940390860FEF795FF05460F
:101AC00006E0FEF791FF401B022801D903205EE5E6
:101AD000384840380068012149060840400E002877
:101AE000EFD1E16AA06A0843216B084331494039CC
:101AF000C968FD221204914308432E494039C86049
:101B0000084600680121090608432A49403908604F
:101B1000FEF76AFF054606E0FEF766FF401B022857
:101B200001D9032033E523484038006801214906E4
:101B30000840400E0028EFD038E01E4840380068CA
:101B40000121090688431B4940390860FEF74CFF14
:101B5000054606E0FEF748FF401B022801D9032096
:101B600015E5144840380068012149060840400E38
:101B70000028EFD11AE00F484038C06801900121D9
:101B8000090401980840A16A88420DD10F218904F7
:101B900001980840E16A884206D10321890501982D
:101BA0000840216B884201D00120F0E40020EEE4DF
:101BB00000700040401002408813000070B50446D9
:101BC0002546681E0949884201D901200CE0681E9B
:101BD000074948610321081F01F0D6FB0020044992
:101BE000886107200861002070BD0000FFFFFF0032
:101BF00000E000E070477047FEB504462068C56904
:101C000020680668206887682807000F01900198FF
:101C100000280ED12020284000280AD02020304063
:101C2000002806D0206E002802D02046216E88476A
:101C3000FEBD019800287DD0F807C00F002804D110
:101C4000FF20213030400028F5D0E807C00F0028E1
:101C50000BD0FF2001303040002806D00120216841
:101C60000862E06F01210843E06702202840002855
:101C70000AD0F807C00F002806D0022021680862A9
:101C8000E06F04210843E0670420284000280AD0C0
:101C9000F807C00F002806D0042021680862E06F12
:101CA00002210843E0670820284000280ED02020A9
:101CB0003040002803D1F807C00F002806D00820C4
:101CC00021680862E06F08210843E067E06F0028A0
:101CD00046D020202840002809D02020304000286D
:101CE00005D0206E002802D02046216E8847E06F84
:101CF00000902068806840210840002804D1082115
:101D000000980840002826D0204601F003F92068FA
:101D1000806840210840002819D0206880688843E6
:101D200021688860E06E00280DD02548E16E886348
:101D3000E06E00E015E0FEF71FFD002810D0E06E19
:101D4000816B88470CE02046FFF755FF08E02046EE
:101D5000FFF751FF04E02046FFF74DFF0020E0674A
:101D600066E701200005284000280CD001208005EE
:101D70003840002807D0012000052168086220466D
:101D8000FFF738FF54E78020284000280AD0802041
:101D90003040002806D0606E002802D02046616ED8
:101DA000884745E740202840002807D040203040A1
:101DB000002803D0204601F0BFF839E700BF37E71D
:101DC000FD2E000810B50446002C01D1012010BDE5
:101DD000A069002800D000E000BF606F002805D196
:101DE000002170200155204600F02CF82420606767
:101DF000206800684008400021680860204601F023
:101E0000ABF8012800D1E2E7606A002802D0204642
:101E100000F094FF206840680921C90288432168C6
:101E20004860206880682A2188432168886020688B
:101E300000680121084321680860204600F0F6FF91
:101E4000C5E7000010B586B00446142101A8FEF7CE
:101E500062FA1949206888422BD11848806B012109
:101E6000890408431549886300BF0846C06A0121F8
:101E700008431249C8620846C06AC007C00F0090F4
:101E800000BF00BF032001900220029000200390B9
:101E9000032004900620059001A905200007FEF705
:101EA000ABFC002211461D20FFF76AF81D20FFF74A
:101EB00059F806B010BD0000004800400010024074
:101EC000FFB585B004460D461746A06F20286FD198
:101ED000002D01D0002F02D1012009B0F0BD012159
:101EE0000903A068884208D12069002805D1E807C5
:101EF000C00F002801D00120EFE700BF7020005D77
:101F0000012801D10220E8E701217020015500BF1E
:101F10000020E0672220A067FEF766FD02905820AF
:101F200007535A20075300BF01210903A0688842C4
:101F30000AD12069002803D138495C20015324E0EC
:101F4000FF215C20015320E0A06800280AD120690D
:101F5000002803D1FF215C20015316E07F215C2083
:101F6000015312E001210907A06888420AD12069C3
:101F7000002803D17F215C20015306E03F215C2033
:101F8000015302E000215C20015300BF5C20005B94
:101F9000039001210903A068884205D12069002827
:101FA00002D10026049502E02E460020049025E090
:101FB00031E008980090002220212046029B01F089
:101FC00095F9002801D0032087E7002E09D1206869
:101FD000406A03990840049908800498801C049082
:101FE00006E02068406A0399C9B208403070761C48
:101FF0005A20005B401E81B25A2001535A20005BD8
:102000000028D6D12020A06700BF002170200155F4
:1020100000BF002061E702205FE70000FF01000031
:10202000FFB583B004460D461746606F202875D172
:10203000002D01D0002F02D1012007B0F0BD0121F9
:102040000903A068884208D12069002805D1E80763
:10205000C00F002801D00120EFE700BF7020005D15
:10206000012801D10220E8E701217020015500BFBD
:102070000020E06721206067FEF7B6FC0190502049
:1020800007535220075301210903A068884205D154
:102090002069002802D10026029502E02E46002089
:1020A000029021E006980090002280212046019BAA
:1020B00001F01CF9002801D00320BEE7002E09D151
:1020C00002980088C005C00D216888620298801CB3
:1020D000029003E0307821688862761C5220005B11
:1020E000401E81B2522001535220005B0028D9D1FA
:1020F00006980090002240212046019B01F0F6F84E
:10210000002801D0032098E72020606700BF00214D
:102110007020015500BF00208FE7FFE702208CE709
:10212000704710B50446002C01D1012010BD204697
:1021300000F00EF88021E0680843216808606168BB
:1021400020690843A1680843216848600020EDE742
:10215000054A0168914205D10449896BD2141143A3
:10216000024A916370470000002C004000100240BA
:1021700000BFFEE710B50848006880690721090222
:102180000840002803D00448FEF7B6FC02E00248ED
:10219000FEF7F8FC10BD00005000002070B50546A9
:1021A000AC6A0020A16B8863E16B88634120005D0D
:1021B000602806D12021412001552046FEF79AFCD7
:1021C00002E02046FEF7EDFC70BD10B5024600208F
:1021D000CB07DB0F002B09D04223184341239B5C24
:1021E00028242340282B01D0B023184302230B407E
:1021F000022B09D14423184341239B5C282423400C
:10220000282B01D0B023184304230B40042B01D109
:10221000B823184311230B40112B01D190231843ED
:1022200012230B40122B01D12023184312230B4001
:10223000122B01D14023184313681B688343146891
:10224000236010BD016889690222114049080029F4
:1022500002D000210268916201688969C907C90F2B
:10226000012251405140002904D10168896911437C
:10227000026891617047F8B504464120005D28214D
:102280000840282854D120688069012109040840A9
:10229000070C206880697F2149040840050C2068EC
:1022A00080688605B60D2068C068FE210840009051
:1022B000E06802282DD106202840F11106221140A5
:1022C000884216D13546A06C401CA064A06C022840
:1022D00036D10020A06408202168C86100BF002119
:1022E0004020015500BF2A4639462046FEF703FC30
:1022F00026E0009D04212046FFF767FF00BF002174
:102300004020015500BF2A4639462046FEF7F3FB20
:1023100016E004212046FFF758FF00BF00214020AF
:10232000015500BF2A4639462046FEF7E4FB07E088
:1023300008202168C86100BF00214020015500BF6E
:10234000F8BD000070B504460E464120055D002131
:10235000422001553F48E06200206085606C3043B8
:102360006064282D03D0292D01D02A2D0BD1032103
:102370002046FFF72AFF2821412001550020206335
:10238000354860630DE007212046FFF71EFF41201E
:10239000005D602802D020214120015500202063EB
:1023A000606320680068012189030840884218D1D1
:1023B00020680068884321680860A06B002848D026
:1023C0002648A16B886300BF00214020015500BF53
:1023D000A06BFEF7D1F900283BD0A06B816B88473A
:1023E00037E0206800680121C9030840884218D1FD
:1023F00020680068884321680860E06B002828D0C6
:102400001648E16B886300BF00214020015500BFE2
:10241000E06BFEF7B1F900281BD0E06B816B8847B9
:1024200017E04120005D60280BD12021412001559B
:1024300000BF00214020015500BF2046FEF75AFB97
:1024400007E000BF00214020015500BF2046FEF7F5
:10245000A8FB70BD0000FFFF292700089D21000890
:1024600070B504460D461C48E06200202063202120
:1024700041200155002142200155002060630420C5
:1024800028408008002817D00421284688430546A4
:102490002068406A616A0870606A401C6062208D32
:1024A000002809D0208D401E2085608D401E60854B
:1024B000606C04210843606407212046FFF785FE15
:1024C00010202168C86100BF00214020015500BFD5
:1024D0002046FEF7D1FB70BD0000FFFF70B504463B
:1024E0000D462068066820202168C8610721204623
:1024F000FFF76BFE206840680121C903084321688B
:102500004860206840684549084021684860204686
:10251000FFF798FE012080033040800B002807D091
:10252000A06B002811D0A06B0068406860850CE0AB
:102530000120C0033040C00B002806D0E06B00280B
:1025400003D0E06B00684068608504202840800864
:10255000002813D004212846884305462068406A95
:10256000616A0870606A401C6062208D002805D096
:10257000208D401E2085608D401E6085608D002866
:1025800003D0606C042108436064002020630021B4
:102590004220015500206063606C00280CD0616C03
:1025A0002046FFF7CFFE4120005D282834D1294680
:1025B0002046FFF755FF2FE0E06A1949884210D006
:1025C000204600F02FF81648E062202141200155F6
:1025D00000BF00214020015500BF2046FEF74CFB04
:1025E0001AE04120005D22280BD120214120015515
:1025F00000BF00214020015500BF2046FEF732FCFD
:102600000AE020214120015500BF00214020015552
:1026100000BF2046FEF727FC70BD000000E800FE6A
:102620000000FFFF10B50446002142200155412063
:10263000005D292811D12821412001552120206346
:1026400001212046FFF7C1FD00BF002140200155B8
:1026500000BF2046FEF707FC14E04120005D2A2859
:1026600010D128214120015522202063022120463B
:10267000FFF7ABFD00BF00214020015500BF204601
:10268000FEF7F0FB10BD000070B504460D4616467F
:102690002068806910210840000900283FD018E018
:1026A000681C002815D0FEF79FF9801BA84201D8AE
:1026B000002D0ED1606C202108436064412001553B
:1026C00000214220015500BF4020015500BF0120DC
:1026D00070BD206880692021084040090028DFD0B3
:1026E00010202168C86120202168C8612046FFF7BA
:1026F000A9FD206840680B49084021684860606C6B
:10270000042108436064202141200155002142201A
:10271000015500BF4020015500BF0120D8E700202F
:10272000D6E7000000E800FEF8B504460D4617465F
:10273000E66A00BF4020005D012801D10220F8BDFB
:1027400001214020015500BF102028400009002829
:1027500039D0102038400009002834D0608D00287E
:1027600020D14120005D282807D14806864204D1A7
:1027700029462046FFF774FE80E04120005D2928AD
:102780000CD14948864209D010202168C8612046F2
:10279000FFF758FD2046FFF745FF6FE01020216846
:1027A000C8616BE010202168C861606C0421084397
:1027B0006064002E02D0880586425FD1616C20469D
:1027C000FFF7C0FD5AE0042028408008002822D0EE
:1027D00004203840800800281DD0608D002810D0CB
:1027E00004212846884305462068406A616A0870CB
:1027F000606A401C6062208D401E2085608D401EF6
:102800006085608D002839D12748864236D0204621
:10281000FFF708FF32E008202840C008002809D050
:1028200008203840C008002804D029462046FFF779
:1028300022FD23E002202840400800281ED002206C
:1028400038404008002819D0608D00280DD0606AFB
:10285000007821688862606A401C6062608D401E5A
:102860006085208D401E208508E0012000068642FC
:1028700001D0002E02D12046FFF7D4FE20202840B0
:102880004009002808D0202038404009002803D003
:1028900029462046FFF722FE00BF002140200155B7
:1028A00000BF00204BE700000000FFFFF0B5046808
:1028B0006568059C640D0126B6023440084E264327
:1028C0002C46B4438D05AD0D1604FF273F043E4052
:1028D00035431D43059E35432C4305686C60F0BDB0
:1028E000FF63FF03F8B504460E4617461D4619E080
:1028F000681C002816D0FEF777F80699401AA842FF
:1029000001D8002D0ED1606C202108436064412065
:10291000015500214220015500BF4020015500BF54
:102920000120F8BD206880693040B04201D101200B
:1029300000E00020B842DBD00020F2E770B504468A
:102940000D4616461EE0324629462046FFF79CFEFD
:10295000002801D0012070BDFEF746F8801BA84278
:1029600001D8002D0ED1606C202108436064412005
:10297000015500214220015500BF4020015500BFF4
:102980000120E8E7206880692021084040090028EC
:10299000D9D00020DFE770B504460D46164621E089
:1029A000324629462046FFF76FFE002801D001205D
:1029B00070BD681C002815D0FEF716F8801BA842D1
:1029C00001D8002D0ED1606C2021084360644120A5
:1029D000015500214220015500BF4020015500BF94
:1029E0000120E5E7206880690221084040080028AE
:1029F000D6D00020DCE7000010B50248FFF7FCF855
:102A000010BD0000AC00002010B50A480A4908605B
:102A10000020087100210848417141618161012055
:102A2000054908620846FDF749FE002801D0FDF778
:102A30000FFE10BD003002402C00002000B587B012
:102A4000142102A8FDF767FC00BF3248C06A0221CA
:102A500008433049C8620846C06A02210840019014
:102A600000BF00BF00BF2B48C06A042108432949AA
:102A7000C8620846C06A04210840019000BF00BF38
:102A800000BF2448C06A012108432249C8620846A1
:102A9000C06AC007C00F019000BF00BF01229103B0
:102AA0001D48FDF79AFF012040020290002003908C
:102AB000049002A91948FDF79FFE012080030290AF
:102AC00001200390022004900020059002A91248E2
:102AD000FDF792FE0120C0030290114803900120EF
:102AE000049002A90C48FDF787FE90200290002078
:102AF0000390049002A905200007FDF77DFE002247
:102B000011460720FEF73CFA0720FEF72BFA07B024
:102B100000BD0000001002400008005000040050FA
:102B20000000211010B5164816490860FF20083033
:102B300048600021134881600121C16000210161CA
:102B400041618161C1610162FEF72CF8002801D06A
:102B5000FDF77EFD00210B48FDF74CFF002801D05A
:102B6000FDF776FD00210748FDF77BFF002801D027
:102B7000FDF76EFD01200003FDF7ACFF10BD000066
:102B8000005400405000002010B508480849086073
:102B90000020486007490648C1608160FEF764F97B
:102BA000002801D0FDF754FD10BD000000300040AA
:102BB0009C000020FF0F000010B50E480E49086071
:102BC0000E484860012109070B4881600021C1605F
:102BD00001610C21416100218161016200200649EF
:102BE00048620846FFF7EEF8002801D0FDF730FDF7
:102BF00010BD000000480040AC000020243303005A
:102C000010B509480949086000204860402107487C
:102C10008160C16000210161FFF783FA002801D0C3
:102C2000FDF716FD10BD0000002C00402C01002017
:102C300070477047704710B5FEF74CF910BD0000A3
:102C400000B599B034210CA8FDF765FB142107A845
:102C5000FDF761FB182101A8FDF75DFB1C4800682A
:102C60000321C90288430121C9024018184908609C
:102C70000A200C9001200F9010201090012011903C
:102C8000002015900CA8FEF77DFC002801D0FDF770
:102C9000DFFC0F20079001200890002009900A9087
:102CA0000B90002107A8FEF7D7FA002801D0FDF706
:102CB000CFFC0C20019000200490059001A8FEF7A5
:102CC000C5F9002801D0FDF7C3FC19B000BD000014
:102CD0000070004015480068FF2101310843134986
:102CE00008600846C068124908401049C860084694
:102CF0000068104908400D4908600846806840088F
:102D0000400088600846006801218904884307491B
:102D100008600846C068FD21090488430349C8606B
:102D200000200861C8030449886070470010024011
:102D30000C40FF88F6FFF6FE00ED00E0818CC9072D
:102D4000C90F002908D00168496801225204914343
:102D5000826A1143026851600222416A11400029CF
:102D600007D001684968D2039143C26A11430268DF
:102D700051600422416A1140002907D00168496866
:102D800012049143026B1143026851600822416AA8
:102D90001140002907D00168496812039143426B32
:102DA0001143026851601022416A1140002907D086
:102DB0000168896812029143826B11430268916035
:102DC0002022416A1140002907D001688968120257
:102DD0009143C26B1143026891604022416A1140E5
:102DE000002915D00168496892039143026C114390
:102DF0000268516001221205016C914208D10168FC
:102E00004968032252059143426C114302685160A4
:102E10008022416A1140002907D0016849681203E5
:102E20009143826C114302685160704738B5044683
:102E30000020E067FDF7D8FD0546206800680821FE
:102E4000084008280BD114482B4600228904009022
:102E5000204600F04BFA002801D0032038BD20683E
:102E600000680421084004280BD10B482B4600229F
:102E700009050090204600F039FA002801D003200F
:102E8000ECE720206067A06700BF0021702001559B
:102E900000BF0020E2E70000FFFFFF0110B5FDF7D3
:102EA000A3FD12490968401AFF21F531884203D277
:102EB0000E480068002817D10D200D4908703223F4
:102EC00002220C48FFF7ACF8322308220A490948CD
:102ED000FEF7F6FF084800781E2801D100F0F8FA46
:102EE000FDF782FD0149086010BD000014000020BC
:102EF00000000020AC0000200200002070B5054654
:102F0000AC6A00215A200153522001532046FEF79B
:102F100072FE70BD01680968FF2221329143026888
:102F200011600168896849084900026891602021A0
:102F3000816700210166704710B50446206800686B
:102F40004021884321680860202060670020606677
:102F50002046FFF7E5F810BDF0B587B00446102015
:102F600004900025002003900026D649206888425E
:102F700000D100E000BF2169A068084361690843EF
:102F8000E1690843074620680068CF490840384394
:102F90002168086020684068032109038843E168CC
:102FA000084321684860A769C6492068884201D063
:102FB000206A0743206880680B2109028843384350
:102FC0002168886000BFC149206888421CD1C04880
:102FD000C0680C210840002806D004280AD0082820
:102FE00005D00C280CD108E0002004900BE0022052
:102FF000049008E00420049005E00820049002E01A
:103000001020049000BF25E0AE49206888421FD1FF
:10301000AF48C068032189020840002808D0012178
:103020008902401A0AD0401A05D0401A0CD108E093
:10303000002004900BE00220049008E0042004909B
:1030400005E00820049002E01020049000BF01E099
:103050001020049000BF9B492068884256D10498F4
:1030600004281AD004DC002807D002281CD108E06C
:10307000082816D0102817D117E0FEF7F7F90646F2
:1030800016E09348403800681021084000090028E5
:1030900001D0904E00E0904E0AE0FEF70BFA064693
:1030A00006E00126F60303E000BF0120039000BF05
:1030B00000BF002E0AD0606841004018B04203D81B
:1030C00060680003B04202D201200390F3E0606820
:1030D00002903046FF21013100F03EF9626852084B
:1030E00000238018594101910090029AFDF774F86D
:1030F000054603200002854205D37848854202D860
:103100002068C560D7E001200390D4E00121C90305
:10311000E06988426ED1049804283CD006DC00287F
:1031200009D0012813D002284AD11CE008283ED03B
:10313000102845D145E0FEF799F94000616849083B
:10314000401802906168FDF7E8F885B23CE0FEF7B0
:103150009FF9400061684908401802906168FDF7D6
:10316000DCF885B230E05A48403800681021084049
:103170000009002807D061684A08594BD018FDF7AC
:10318000CCF885B206E061684A08564BD018FDF7C6
:10319000C4F885B218E0FEF78DF94000616849086F
:1031A000401802906168FDF7B8F885B20CE06168DC
:1031B0004A0801231B04D018FDF7AFF885B203E0DD
:1031C00000BF0120039000BF00BF102D0FD3464861
:1031D00085420CD844480F38284005902807400FF6
:1031E00005990843059005982168C86063E00120AF
:1031F000039060E0049804283AD006DC002809D047
:10320000012812D0022847D11AE008283BD0102804
:1032100042D142E0FEF72AF961684908401802905D
:103220006168FDF77AF885B23AE0FEF731F9616836
:103230004908401802906168FDF76FF885B22FE0E9
:10324000234840380068102108400009002807D0B2
:1032500061684A081F4BD018FDF75FF885B206E099
:1032600061684A081C4BD018FDF757F885B217E083
:10327000FEF720F961684908401802906168FDF77F
:103280004CF885B20CE061684A080123DB03D018D2
:10329000FDF743F885B203E000BF0120039000BFB3
:1032A00000BF102D05D31048854202D82068C560A4
:1032B00001E001200390002020666066039807B0BB
:1032C000F0BD000000480040F369FFEF00440040FB
:1032D0004010024000093D000024F400FFFF0F00F1
:1032E00000127A000048E801FFFF0000FFB581B03E
:1032F00004460D4617460A9E22E0701C00281FD087
:10330000FDF772FB0499401AB04201D8002E17D184
:1033100020680068FF21A131884321680860206887
:103320008068400840002168886020206067A067AE
:1033300000BF00217020015500BF032005B0F0BD83
:103340002068C0692840A84201D1012000E0002087
:10335000B842D2D00020F1E7F8B582B28BB2040CAB
:103360000D0C10465843002126465E43370C3604A8
:103370008019794116466E43370C3604801979411D
:1033800026466E438919F8BD10B5002819DB1A4A84
:1033900003231B02D21883089B00D2588307DC0E3C
:1033A000FF23A3409A438B071B0E8407E40EA34020
:1033B0001A43114B032424021B198408A4001A5138
:1033C00018E00E4A03071B0F083B9B089B00D258CE
:1033D0008307DC0EFF23A3409A438B071B0E840751
:1033E000E40EA3401A43054B0407240F083CA4082D
:1033F000A4001A5110BD000000E100E01CED00E047
:10340000FDF770FDFFF71CFCFFF718FBFFF7FCFA58
:10341000FFF788FBFFF7B8FBFFF7CEFBFFF7F0FBEA
:103420000020FDF775F850E0FFF738FD102105206A
:103430000007FDF7C9FA012820D110210520000757
:10344000FDF7C2FA0446FDF74AF82049097840180A
:103450000E280FDA102105200007FDF7B5FA054602
:10346000FDF73DF8194909784018C4B22046FDF728
:103470004FF82AE00E20FDF74BF826E080210520CA
:103480000007FDF7A1FA01281FD1802105200007C0
:10349000FDF79AFA0446FDF722F80C490978081A54
:1034A00000280FDD802105200007FDF78DFA054675
:1034B000FDF715F8054909784018C4B22046FDF714
:1034C00027F802E00020FDF723F8ADE71200002006
:1034D00010B517480068401C154908600846006888
:1034E0001449884222D114484078002806D101208E
:1034F000C003FDF78FFDFDF795FD17E00E48C0797D
:10350000002808D1FDF776FD0022012189030B4830
:10351000FDF763FA0AE00848C079012806D1FDF7F3
:1035200039FD012291030548FDF757FA10BD00004F
:103530002000002020A10700020000200008005009
:1035400000030A0F18212D3A4B5E7590B0D600008B
:1035500058006B000000000000000000010203049E
:10356000060708090000000001020304030406081E
:103570000C101820300000009835000800000020D2
:103580002C00000004010008C43500082C000020B5
:103590007407000020010008000000000000000087
:1035A000000000000000000000000000000000001B
:1035B000000000000000000000000000000000000B
:0435C00000002000E7
:040000050800016589
:00000001FF
